S0150000656A6572636963696F6C6564732E73726563BA
S113000071C0000049C3000063C300008BC000003E
S113001089C0000087C0000085C0000083C00000C4
S113002081C000007FC000007DC000007BC00000D4
S113003079C0000077C0000075C0000073C00000E4
S113004071C000006FC000006DC000006BC00000F4
S113005069C0000098C3000065C0000063C00000D0
S113006061C000005FC000005DC000005BC0000014
S113007059C0000057C0000055C0000053C0000024
S113008051C000004FC000004DC000004BC0000034
S113009049C0000047C0000045C0000043C0000044
S11300A041C000003FC000003DC000003BC0000054
S11300B039C0000037C0000035C0000033C0000064
S11300C031C000002FC000002DC000002BC0000074
S11300D029C0000027C0000025C0000023C0000084
S11300E021C0000011241FBECFEFD1E2DEBFCDBF7F
S11300F000E00CBF12E0A0E0B2E0ECE0F2E100E0CE
S11301000BBF02C007900D92AE30B107D9F722E0C1
S1130110AEE0B2E001C01D92A332B207E1F780D392
S11301200C9404096DCF672B09F0DFC0009721F40C
S113013082B18E7F82B908958130910521F482B114
S11301408D7F82B908958230910521F482B18B7F2D
S113015082B908958330910521F482B1877F82B9F1
S113016008958430910521F482B18F7E82B9089577
S11301708530910521F482B18F7D82B9089586304E
S1130180910521F482B18F7B82B90895873091055E
S113019021F482B18F7782B908958A30910521F4D0
S11301A085B18E7F85B908958B30910521F485B191
S11301B08D7F85B908958C30910521F485B18B7FAD
S11301C085B908958D30910521F485B1877F85B96E
S11301D008958E30910521F485B18F7E85B90895F7
S11301E08F30910521F485B18F7D85B908958031D3
S11301F0910521F485B18F7B85B9089581319105ED
S113020021F485B18F7785B908958431910521F45E
S113021088B18E7F88B908958531910521F488B11C
S11302208D7F88B908958631910521F488B18B7F3B
S113023088B908958731910521F488B1877F88B9F9
S113024008958831910521F488B18F7E88B9089585
S11302508931910521F488B18F7D88B908958A3157
S1130260910521F488B18F7B88B908958B3191056C
S113027021F488B18F7788B908958E31910521F4DE
S11302808BB18E7F8BB908958F31910521F48BB199
S11302908D7F8BB908958032910521F48BB18B7FCA
S11302A08BB908958132910521F48BB1877F8BB985
S11302B008958232910521F48BB18F7E8BB9089514
S11302C08332910521F48BB18F7D8BB908958432EB
S11302D0910521F48BB18F7B8BB90895859709F033
S11302E0E1C08BB18F778BB90895009721F482B167
S11302F0816082B908958130910521F482B18260D0
S113030082B908958230910521F482B1846082B962
S113031008958330910521F482B1886082B90895EB
S11303208430910521F482B1806182B908958530C9
S1130330910521F482B1806282B9089586309105D5
S113034021F482B1806482B908958730910521F443
S113035082B1806882B908958A30910521F485B10B
S1130360816085B908958B30910521F485B182604F
S113037085B908958C30910521F485B1846085B9DF
S113038008958D30910521F485B1886085B908956B
S11303908E30910521F485B1806185B908958F303F
S11303A0910521F485B1806285B908958031910564
S11303B021F485B1806485B908958131910521F4D2
S11303C085B1806885B908958431910521F488B197
S11303D0816088B908958531910521F488B18260DE
S11303E088B908958631910521F488B1846088B96B
S11303F008958731910521F488B1886088B90895FA
S11304008831910521F488B1806188B908958931D2
S1130410910521F488B1806288B908958A319105E3
S113042021F488B1806488B908958B31910521F451
S113043088B1806888B908958E31910521F48BB113
S113044081608BB908958F31910521F48BB182605D
S11304508BB908958032910521F48BB184608BB9F6
S113046008958132910521F48BB188608BB9089588
S11304708232910521F48BB180618BB90895833266
S1130480910521F48BB180628BB908958432910572
S113049021F48BB180648BB90895859719F48BB1DD
S11304A080688BB90895CF93C82F80FF06C061E0A0
S11304B070E086E190E037DE05C060E070E086E140
S11304C090E031DEC1FF06C061E070E087E190E0BA
S11304D02ADE05C060E070E087E190E024DEC2FF20
S11304E006C061E070E088E190E01DDE05C060E0D8
S11304F070E088E190E017DEC3FF06C061E070E0C1
S113050089E190E010DE05C060E070E089E190E0F0
S11305100ADECF910895CF93C82F60E070E084E1A4
S113052090E001DE8C2FBFDF61E070E085E190E0B8
S1130530FADD8FE99FE00197F1F700C0000060E069
S113054070E085E190E0EFDD8FE99FE00197F1F73E
S113055000C00000CF91089580E0DDDF81E0DBCFB3
S11305600895CF93813051F480E8860FC62FCF7061
S113057082958F70D0DF8C2FCEDF0BC0823049F490
S113058080EC860FC62FCF7082958F70C4DF8C2FBE
S1130590C2DFCF91089580E086DF2FEF89EF90E0EE
S11305A0215080409040E1F700C0000083E0B3DFB9
S11305B08FE19EE40197F1F700C0000083E0ABDF18
S11305C08FED9BEA0197F1F700C0000083E0A3DF01
S11305D082E0A1DF82E09FDF88E09DDF80E09BDF97
S11305E08CE099DF80E097DF86E095CF0895CF9384
S11305F0DF93D82FDF70C82FC07F61E070E084E103
S113060090E091DD8C2F82958F704DDF61E070E07A
S113061085E190E088DD8FE99FE00197F1F700C064
S1130620000060E070E085E190E07DDD8FE99FE00F
S11306300197F1F700C000008D2F35DF61E070E015
S113064085E190E070DD8FE99FE00197F1F700C04C
S1130650000060E070E085E190E065DD8FE99FE0F7
S11306600197F1F700C00000DF91CF9108950F9337
S11306701F93CF93DF938C01C0E0D0E002C0B7DFBB
S11306802196F801EC0FFD1F80818111F8CFDF91D5
S1130690CF911F910F9108951F920F920FB60F9251
S11306A011248F939F938FE39CE90197F1F700C086
S11306B00000489906C09091120281E08927809336
S11306C012029F918F910F900FBE0F901F9018955B
S11306D01F920F920FB60F9211248F939F938FE363
S11306E09CE90197F1F700C00000499908C0809186
S11306F0110291E0892780931102909310029F9137
S11307008F910F900FBE0F901F90189511B812B8CB
S11307101AB883E08BB98FE084B915B88FE387B931
S113072018B810BA08958AE08093690083E08DBBFD
S11307301CBA089582E084BD95E095BD80936E0057
S11307408BE987BD089581E080937E0080E48093E7
S11307507C0010927B0087E880937A000895ECE790
S1130760F0E08081807E8083EBE7F0E08081877F0A
S11307708083EAE7F0E080818064808380917A005E
S113078086FDFCCF08951F920F920FB60F9211248D
S11307900BB60F922F933F934F935F936F937F9377
S11307A08F939F93AF93BF93EF93FF93D8DF809181
S11307B078009091790090930F0280930E02FF913C
S11307C0EF91BF91AF919F918F917F916F915F91C5
S11307D04F913F912F910F900BBE0F900FBE0F9032
S11307E01F90189560910E0270910F02072E000C55
S11307F0880B990B3FD120E030EC4FE754E49FD0B5
S113080020E030E046E153E4C1D120E030E048E4A8
S113081052E431D0FCD07093010260930002089539
S113082075DF81DF87DF8FDF7894B5DE95DEDADF71
S113083080910002909101029F938F9382E092E055
S11308409F938F9383E192E09F938F9302D260E012
S113085081E087DE83E192E00ADF8FE39FE1019785
S1130860F1F700C000000F900F900F900F900F90C1
S11308700F90DDCF5058BB27AA270ED04DC13ED1D3
S113088030F043D120F031F49F3F11F41EF433C112
S11308900EF4E095E7FB29C1E92F4FD180F3BA1795
S11308A0620773078407950718F071F49EF567C112
S11308B00EF4E0950B2EBA2FA02D0B01B901900177
S11308C00C01CA01A0011124FF27591B99F0593FBB
S11308D050F4503E68F11A16F040A22F232F342F03
S11308E04427585FF3CF469537952795A795F04051
S11308F05395C9F77EF41F16BA0B620B730B840B66
S1130900BAF09150A1F0FF0FBB1F661F771F881F1D
S1130910C2F70EC0BA0F621F731F841F48F4879575
S113092077956795B795F7959E3F08F0B3CF939564
S1130930880F08F09927EE0F9795879508950CD0A6
S1130940EBC0E3D040F0DAD030F021F45F3F19F08F
S1130950CCC0511115C1CFC0F0D098F39923C9F37D
S11309605523B1F3951B550BBB27AA2762177307B1
S1130970840738F09F5F5F4F220F331F441FAA1F65
S1130980A9F333D00E2E3AF0E0E830D09150504025
S1130990E695001CCAF729D0FE2F27D0660F771FD3
S11309A0881FBB1F261737074807AB07B0E809F0B5
S11309B0BB0B802DBF01FF2793585F4F2AF09E3F4A
S11309C0510568F092C0DCC05F3FECF3983EDCF365
S11309D0869577956795B795F7959F5FC9F7880FC3
S11309E0911D9695879597F90895E1E0660F771F15
S11309F0881FBB1F621773078407BA0720F0621BA6
S1130A00730B840BBA0BEE1F88F7E095089504D09E
S1130A106894B111B5C0089598D088F09F5790F0AC
S1130A20B92F9927B751A0F0D1F0660F771F881F0F
S1130A30991F1AF0BA95C9F712C0B13081F09FD04E
S1130A40B1E008959CC0672F782F8827B85F39F0EC
S1130A50B93FCCF3869577956795B395D9F73EF46E
S1130A6090958095709561957F4F8F4F9F4F089516
S1130A70E89409C097FB3EF4909580957095619534
S1130A807F4F8F4F9F4F9923A9F0F92F96E9BB27EA
S1130A909395F695879577956795B795F111F8CF66
S1130AA0FAF4BB0F11F460FF1BC06F5F7F4F8F4FD1
S1130AB09F4F16C0882311F096E911C0772321F0C7
S1130AC09EE8872F762F05C0662371F096E8862F5F
S1130AD070E060E02AF09A95660F771F881FDAF7B6
S1130AE0880F9695879597F9089597F99F6780E8F9
S1130AF070E060E008959FEF80EC089500240A946C
S1130B001616170618060906089500240A941216E4
S1130B101306140605060895092E0394000C11F417
S1130B20882352F0BB0F40F4BF2B11F460FF04C0C4
S1130B306F5F7F4F8F4F9F4F089557FD9058440F1D
S1130B40551F59F05F3F71F04795880F97FB991F28
S1130B5061F09F3F79F087950895121613061406E5
S1130B60551FF2CF4695F1DF08C016161706180672
S1130B70991FF1CF86957105610508940895E8944D
S1130B80BB2766277727CB0197F908950BD0C4CFED
S1130B90B5DF28F0BADF18F0952309F0A6CFABCF64
S1130BA01124EECFCADFA0F3959FD1F3950F50E047
S1130BB0551F629FF001729FBB27F00DB11D639F0B
S1130BC0AA27F00DB11DAA1F649F6627B00DA11DB1
S1130BD0661F829F2227B00DA11D621F739FB00D57
S1130BE0A11D621F839FA00D611D221F749F3327C7
S1130BF0A00D611D231F849F600D211D822F762F60
S1130C006A2F11249F5750408AF0E1F088234AF05C
S1130C10EE0FFF1FBB1F661F771F881F91505040A8
S1130C20A9F79E3F510570F060CFAACF5F3FECF368
S1130C30983EDCF3869577956795B795F795E79594
S1130C409F5FC1F7FE2B880F911D9695879597F9A5
S1130C5008950F931F93CF93DF93CDB7DEB72E97ED
S1130C600FB6F894DEBF0FBECDBF0E891F8986E094
S1130C708C831A8309838FEF9FE79E838D83AE0154
S1130C80465E5F4F688D798DCE01019610D0EF815D
S1130C90F885E00FF11F10822E960FB6F894DEBF90
S1130CA00FBECDBFDF91CF911F910F9108952F9269
S1130CB03F924F925F926F927F928F929F92AF92E8
S1130CC0BF92CF92DF92EF92FF920F931F93CF9335
S1130CD0DF93CDB7DEB72B970FB6F894DEBF0FBE08
S1130CE0CDBF6C017B018A01FC01178216828381CE
S1130CF081FFBFC1CE0101963C01F6019381F7014A
S1130D0093FD859193FF81917F01882309F4ADC1FF
S1130D10853239F493FD859193FF81917F0185326A
S1130D2021F4B60190E0D6D1E8CF912C212C312CBE
S1130D30FFE1F315D8F08B3279F038F4803279F092
S1130D408332A1F4232D20611DC08D3261F08033E4
S1130D5069F4232D216016C0832D8260382EE32D83
S1130D60E4603E2E2AC0F32DF8601DC037FC2DC070
S1130D7020ED280F2A3040F08E32B9F436FC75C1CC
S1130D80232D2064322E19C036FE06C08AE0989EB8
S1130D90200D1124922E11C0EAE02E9E200D112464
S1130DA0222EF32DF0623F2E08C08C3621F4832DC1
S1130DB08068382E02C0883641F4F70193FD85918E
S1130DC093FF81917F018111B3CF982F9F7D95541B
S1130DD0933028F40C5F1F4F9FE399830DC0833633
S1130DE031F0833771F0833509F055C020C0F80124
S1130DF0808189830E5F1F4F88248394912C530133
S1130E0012C02801F2E04F0E511CF801A080B180FD
S1130E1036FE03C0692D70E002C06FEF7FEFC5019D
S1130E204ED14C018201F32DFF773F2E15C02801CE
S1130E3022E0420E511CF801A080B18036FE03C0AE
S1130E40692D70E002C06FEF7FEFC5012DD14C0119
S1130E50F32DF0683F2E820133FC19C0822D90E0FF
S1130E6088169906A0F4B60180E290E033D12A9462
S1130E70F5CFF50137FC859137FE81915F01B6010D
S1130E8090E028D121102A9421E0821A910881143B
S1130E90910479F7E1C0843611F0893639F5F80107
S1130EA037FE07C060817181828193810C5F1F4F7F
S1130EB008C060817181072E000C880B990B0E5FAE
S1130EC01F4FF32DFF763F2E97FF09C09095809515
S1130ED0709561957F4F8F4F9F4FF0683F2E2AE0AA
S1130EE030E0A30133D1882E861844C0853731F40D
S1130EF0232D2F7EB22E2AE030E025C0932D997F3A
S1130F00B92E8F36C1F018F4883579F0AEC0803729
S1130F1019F0883721F0A9C0E92FE061BE2EB4FE94
S1130F200DC0FB2DF460BF2E09C034FE0AC0292F6A
S1130F302660B22E06C028E030E005C020E130E093
S1130F4002C020E132E0F801B7FE07C06081718180
S1130F50828193810C5F1F4F06C06081718180E0A4
S1130F6090E00E5F1F4FA301F1D0882E8618FB2D51
S1130F70FF773F2E36FE0DC0232D2E7FA22E89141F
S1130F8058F434FE0BC032FC09C0832D8E7EA82E8B
S1130F9005C0B82CA32C03C0B82C01C0B92CA4FEE6
S1130FA00FC0FE01E80DF11D8081803321F49A2DDC
S1130FB0997EA92E09C0A2FE06C0B394B39404C0BE
S1130FC08A2D867809F0B394A3FC10C0A0FE06C055
S1130FD0B21480F4280C922C9B180DC0B21458F44F
S1130FE0B60180E290E076D0B394F8CFB21418F44E
S1130FF02B1802C0982C212CA4FE0FC0B60180E34C
S113100090E068D0A2FE16C0A1FC03C088E790E07F
S113101002C088E590E0B6010CC08A2D867851F0B4
S1131020A1FE02C08BE201C080E2A7FC8DE2B60102
S113103090E050D0891430F4B60180E390E04AD0B7
S11310409A94F8CF8A94F301E80DF11D8081B601DA
S113105090E040D08110F6CF222009F44ECEB601A4
S113106080E290E037D02A94F7CFF6018681978109
S113107002C08FEF9FEF2B960FB6F894DEBF0FBE22
S1131080CDBFDF91CF911F910F91FF90EF90DF9033
S1131090CF90BF90AF909F908F907F906F905F9014
S11310A04F903F902F900895FC010590615070403F
S11310B00110D8F7809590958E0F9F1F0895FC011D
S11310C06150704001900110D8F7809590958E0F73
S11310D09F1F08950F931F93CF93DF93FB012381E9
S11310E021FD03C08FEF9FEF2CC022FF16C0468165
S11310F05781248135814217530744F4A081B1817B
S11311009D012F5F3F4F318320838C93268137814C
S11311102F5F3F4F3783268314C08B01EC01FB0103
S11311200084F185E02D1995892BE1F6D8011696F6
S11311308D919C911797019617969C938E93169771
S1131140CE01DF91CF911F910F910895FA01AA2743
S1131150283051F1203181F1E8946F936E7F6E5FF6
S11311607F4F8F4F9F4FAF4FB1E03ED0B4E03CD0A4
S1131170670F781F891F9A1FA11D680F791F8A1F87
S1131180911DA11D6A0F711D811D911DA11D20D0EE
S113119009F468943F912AE0269F11243019305DA8
S11311A03193DEF6CF010895462F4770405D419399
S11311B0B3E00FD0C9F7F6CF462F4F70405D4A33E6
S11311C018F0495D31FD4052419302D0A9F7EACFAE
S11311D0B4E0A6959795879577956795BA95C9F7DD
S11311E000976105710508959B01AC010A2E0694D0
S11311F05795479537952795BA95C9F7620F731F89
S10F1200841F951FA01D0895F894FFCFD3
S111120C280076656C6F63696461643A2000A3
S9030000FC
