:1000000071C00000D9C20000F3C200008AC0000025
:1000100088C0000086C0000084C0000082C00000CC
:1000200080C000007EC000007CC000007AC00000DC
:1000300078C0000076C0000074C0000072C00000EC
:1000400070C000006EC000006CC000006AC00000FC
:1000500068C0000028C3000064C0000062C0000047
:1000600060C000005EC000005CC000005AC000001C
:1000700058C0000056C0000054C0000052C000002C
:1000800050C000004EC000004CC000004AC000003C
:1000900048C0000046C0000044C0000042C000004C
:1000A00040C000003EC000003CC000003AC000005C
:1000B00038C0000036C0000034C0000032C000006C
:1000C00030C000002EC000002CC000002AC000007C
:1000D00028C0000026C0000024C0000022C000008C
:1000E00020C0000011241FBECFEFD1E2DEBFCDBF84
:1000F00000E00CBF12E0A0E0B2E0E6EBF7E000E0C9
:100100000BBF02C007900D92A230B107D9F722E0D1
:10011000A2E0B2E001C01D92A730B207E1F700D320
:1001200048C36ECF672B09F0DFC0009721F482B17E
:100130008E7F82B908958130910521F482B18D7F3F
:1001400082B908958230910521F482B18B7F82B902
:1001500008958330910521F482B1877F82B9089593
:100160008430910521F482B18F7E82B90895853063
:10017000910521F482B18F7D82B908958630910571
:1001800021F482B18F7B82B908958730910521F4E3
:1001900082B18F7782B908958A30910521F485B1B3
:1001A0008E7F85B908958B30910521F485B18D7FBF
:1001B00085B908958C30910521F485B18B7F85B97F
:1001C00008958D30910521F485B1877F85B9089513
:1001D0008E30910521F485B18F7E85B908958F30D9
:1001E000910521F485B18F7D85B908958031910500
:1001F00021F485B18F7B85B908958131910521F472
:1002000085B18F7785B908958431910521F488B13E
:100210008E7F88B908958531910521F488B18D7F4D
:1002200088B908958631910521F488B18B7F88B90A
:1002300008958731910521F488B1877F88B90895A1
:100240008831910521F488B18F7E88B9089589316C
:10025000910521F488B18F7D88B908958A3191057F
:1002600021F488B18F7B88B908958B31910521F4F1
:1002700088B18F7788B908958E31910521F48BB1BB
:100280008E7F8BB908958F31910521F48BB18D7FCD
:100290008BB908958032910521F48BB18B7F8BB996
:1002A00008958132910521F48BB1877F8BB9089530
:1002B0008232910521F48BB18F7E8BB90895833200
:1002C000910521F48BB18F7D8BB90895843291050E
:1002D00021F48BB18F7B8BB90895859709F0E1C02C
:1002E0008BB18F778BB90895009721F482B181602B
:1002F00082B908958130910521F482B1826082B97A
:1003000008958230910521F482B1846082B9089504
:100310008330910521F482B1886082B908958430D8
:10032000910521F482B1806182B9089585309105EB
:1003300021F482B1806282B908958630910521F45A
:1003400082B1806482B908958730910521F482B129
:10035000806882B908958A30910521F485B1816061
:1003600085B908958B30910521F485B1826085B9F6
:1003700008958C30910521F485B1846085B9089584
:100380008D30910521F485B1886085B908958E304E
:10039000910521F485B1806185B908958F3091056B
:1003A00021F485B1806285B908958031910521F4E9
:1003B00085B1806485B908958131910521F485B1B5
:1003C000806885B908958431910521F488B18160F0
:1003D00088B908958531910521F488B1826088B982
:1003E00008958631910521F488B1846088B9089513
:1003F0008731910521F488B1886088B908958831E2
:10040000910521F488B1806188B9089589319105F9
:1004100021F488B1806288B908958A31910521F468
:1004200088B1806488B908958B31910521F488B131
:10043000806888B908958E31910521F48BB181606F
:100440008BB908958F31910521F48BB182608BB9FE
:1004500008958032910521F48BB184608BB90895A1
:100460008132910521F48BB188608BB90895823275
:10047000910521F48BB180618BB908958332910588
:1004800021F48BB180628BB908958432910521F4F7
:100490008BB180648BB90895859719F48BB180680E
:1004A0008BB90895CF93C82F80FF06C061E070E03C
:1004B00086E190E037DE05C060E070E086E190E024
:1004C00031DEC1FF06C061E070E087E190E02ADE26
:1004D00005C060E070E087E190E024DEC2FF06C066
:1004E00061E070E088E190E01DDE05C060E070E052
:1004F00088E190E017DEC3FF06C061E070E089E1AB
:1005000090E010DE05C060E070E089E190E00ADE76
:10051000CF910895CF93C82F60E070E084E190E020
:1005200001DE8C2FBFDF61E070E085E190E0FADD55
:100530008FE99FE00197F1F700C0000060E070E0F4
:1005400085E190E0EFDD8FE99FE00197F1F700C0D2
:100550000000CF91089580E0DDDF81E0DBCF0895DA
:1005600080E0A0DF2FEF89EF90E0215080409040A5
:10057000E1F700C0000083E0CDDF8FE19EE401974A
:10058000F1F700C0000083E0C5DF8FED9BEA019723
:10059000F1F700C0000083E0BDDF82E0BBDF82E056
:1005A000B9DF88E0B7DF80E0B5DF8CE0B3DF80E063
:1005B000B1DF86E0AFCF08951F920F920FB60F9272
:1005C00011248F939F938FE39CE90197F1F700C06B
:1005D0000000489906C09091060281E08927809327
:1005E00006029F918F910F900FBE0F901F9018954C
:1005F0001F920F920FB60F9211248F939F938FE348
:100600009CE90197F1F700C00000499908C080916A
:10061000050291E0892780930502909304029F913F
:100620008F910F900FBE0F901F90189511B812B8B0
:100630001AB883E08BB98FE084B915B88FE387B916
:1006400018B810BA08958AE08093690083E08DBBE2
:100650001CBA089582E084BD95E095BD80936E003C
:100660008BE987BD089581E080937E0080E48093CC
:100670007C0010927B0087E880937A000895ECE775
:10068000F0E08081807E8083EBE7F0E08081877FEF
:100690008083EAE7F0E080818064808380917A0043
:1006A00086FDFCCF08951F920F920FB60F92112472
:1006B0000BB60F922F933F934F935F936F937F935C
:1006C0008F939F93AF93BF93EF93FF93D8DF809166
:1006D0007800909179009093030280930202FF9139
:1006E000EF91BF91AF919F918F917F916F915F91AA
:1006F0004F913F912F910F900BBE0F900FBE0F9017
:100700001F90189507C08FE99FE00197F1F700C08F
:100710000000C9019C0121503109892BA1F70895DE
:1007200085DF91DF97DF9FDF78941ADF14DF8091F8
:1007300006028823E1F3809105028823E9F089E02D
:1007400082B98091000290910102DCDF83E082B9DE
:100750008091000290910102D5DF86E082B98091FC
:10076000000290910102CEDF8CE082B980910002FC
:1007700090910102C7DFDBCF89E082B9809100024E
:1007800090910102BFDF8CE082B9809100029091CC
:100790000102B8DF86E082B98091000290910102E7
:1007A000B1DF83E082B98091000290910102AADF5B
:0607B000BECFF894FFCF5C
:0207B600280019
:00000001FF
