S0120000456A6572636963696F312E7372656354
S113000071C000008FC00000A9C000008AC00000B9
S113001088C0000086C0000084C0000082C00000C8
S113002080C000007EC000007CC000007AC00000D8
S113003078C0000076C0000074C0000072C00000E8
S113004070C000006EC000006CC000006AC00000F8
S113005068C00000DEC0000064C0000062C0000090
S113006060C000005EC000005CC000005AC0000018
S113007058C0000056C0000054C0000052C0000028
S113008050C000004EC000004CC000004AC0000038
S113009048C0000046C0000044C0000042C0000048
S11300A040C000003EC000003CC000003AC0000058
S11300B038C0000036C0000034C0000032C0000068
S11300C030C000002EC000002CC000002AC0000078
S11300D028C0000026C0000024C0000022C0000088
S11300E020C0000011241FBECFEFD1E2DEBFCDBF80
S11300F000E00CBF12E0A0E0B2E0EEE1F3E000E0CB
S11301000BBF02C007900D92A230B107D9F722E0CD
S1130110A2E0B2E001C01D92A730B207E1F7B6D069
S1130120FCC06ECF1F920F920FB60F9211248F93C3
S11301309F938FE39CE90197F1F700C00000489971
S113014006C09091060281E08927809306029F9160
S11301508F910F900FBE0F901F9018951F920F92C2
S11301600FB60F9211248F939F938FE39CE901970D
S1130170F1F700C00000499908C08091050291E0A0
S1130180892780930502909304029F918F910F9089
S11301900FBE0F901F90189511B812B81AB883E0CB
S11301A08BB98FE084B915B88FE387B918B810BA42
S11301B008958AE08093690083E08DBB1CBA08959A
S11301C082E084BD95E095BD80936E008BE987BD88
S11301D0089581E080937E0080E480937C001092F7
S11301E07B0087E880937A000895ECE7F0E0808153
S11301F0807E8083EBE7F0E08081877F8083EAE77D
S1130200F0E080818064808380917A0086FDFCCF59
S113021008951F920F920FB60F9211240BB60F92EE
S11302202F933F934F935F936F937F938F939F93FA
S1130230AF93BF93EF93FF93D8DF809178009091B1
S113024079009093030280930202FF91EF91BF9192
S1130250AF919F918F917F916F915F914F913F915A
S11302602F910F900BBE0F900FBE0F901F901895FB
S113027007C08FE99FE00197F1F700C00000C901B2
S11302809C0121503109892BA1F7089585DF91DF65
S113029097DF9FDF7894809106028823E1F38091B1
S11302A005028823E9F089E082B9809100029091E7
S11302B00102DEDF83E082B98091000290910102A5
S11302C0D7DF86E082B98091000290910102D0DFED
S11302D08CE082B98091000290910102C9DFDBCFEA
S11302E089E082B98091000290910102C1DF8CE023
S11302F082B98091000290910102BADF86E082B94E
S11303008091000290910102B3DF83E082B9809171
S1110310000290910102ACDFBECFF894FFCF43
S105031E2800B1
S9030000FC
